:100000000C94EE000C940D010C940D010C940D0158
:100010000C940D010C940D010C940D010C940D0128
:100020000C940D010C940D010C940D010C940D0118
:100030000C940D010C940D010C940D010C940D0108
:100040000C940D010C940D010C940D010C940D01F8
:100050000C940D010C940D010C940D010C940D01E8
:100060000C940D010C940D010C940D010C940D01D8
:100070000C940D010C940D010C940D010C940D01C8
:100080000C940D010C940D010C940D016E616E0029
:10009000696E66006364696E6F70737578585B652E
:1000A000666745464700616E006E66696E697479E1
:1000B00000CDCCCC3D0AD7233C17B7D13877CC2B19
:1000C000329595E6241FB14F0A000020410000C878
:1000D0004200401C4620BCBE4CCA1B0E5AAEC59DF9
:1000E0007400407A10F35A00A0724E18090010A54F
:1000F000D4E80000E87648170000E40B5402000042
:10010000CA9A3B000000E1F50500008096980000C7
:100110000040420F000000A08601000000102700F0
:10012000000000E803000000006400000000000A76
:1001300000000000000100000000002C76D888DCE0
:10014000674F0823DFC1DFAE59E1B1B796E5E3E4BD
:1001500053C63AE651997696E8E6C28426EB898C36
:100160009B62ED407C6FFCEFBC9C9F40F2BAA56F98
:10017000A5F490055A2AF75C936B6CF9676DC11B67
:10018000FCE0E40D47FEF520E6B500D0ED902E032F
:1001900000943577050080841E080000204E0A0078
:1001A0000000C80C333333330F986E12831141EFC4
:1001B0008D2114893BE65516CFFEE6DB18D1844B22
:1001C000381BF77C1D901DA4BBE424203284725E92
:1001D000228100C9F124ECA1E53D270011241FBEB6
:1001E000CFEFD0E1DEBFCDBF12E0A0E0B1E0E8ED9F
:1001F000F3E200E00BBF02C007900D92A633B107F7
:10020000D9F712E0A6E3B2E001C01D92A435B10710
:10021000E1F70E94C6020C94EA110C940000FC0164
:10022000E08180919B0085FFFCCFE0939C000895C6
:10023000EF92FF920F931F93CF93DF93EC018827E8
:1002400077FD8095982F28EF3AE240E050E00E9439
:100250005B0F7B018C0120E030E040E050E00BC000
:100260002F5F3F4F4F4F5F4F2E153F054007510700
:1002700010F0188209C080919B0087FFF1CF2E15E6
:100280003F054007510710F082E004C080919C00B8
:10029000888380E0DF91CF911F910F91FF90EF90C5
:1002A00008950F931F93DF93CF930F92CDB7DEB7CF
:1002B0008F3008F045C0413810F083E042C0198209
:1002C0008823E9F580919B0085FFFCCF8AEA809323
:1002D0009C0080919B0085FFFCCF60939C008091E7
:1002E0009B0085FFFCCF40939C00460FF801C8019E
:1002F000820F911D9C0109C0908180919B0085FF18
:10030000FCCF90939C00490F3196E217F307A1F7B9
:1003100080919B0085FFFCCF40939C00CE0101960D
:1003200061E070E00E941801882311F085E009C0A7
:1003300089818A3A11F480E004C086E002C001C0DD
:1003400081E00F90CF91DF911F910F9108959F92BF
:10035000AF92BF92CF92DF92EF92FF920F931F93D3
:10036000DF93CF93CDB7DEB761970FB6F894DEBFBA
:100370000FBECDBFB22EA02E912E8F3008F066C0DA
:10038000413810F083E067C0882309F05EC0809197
:100390009B0085FFFCCF8AEA80939C0080919B00A4
:1003A00085FFFCCF60939C00406880919B0085FF97
:1003B000FCCF40939C0080919B0085FFFCCF460FB3
:1003C00040939C0082E0E82EF12CEC0EFD1E80E1B3
:1003D000D7011D928A95E9F71982CE01019661E055
:1003E00070E00E941801882399F589818A3A91F575
:1003F0008701DD24CE2C0BC0C80161E070E00E94B3
:100400001801882329F5F80181918F01D80E802FDA
:100410008C198B1588F3CE01019661E070E00E9483
:10042000180199818823A1F49D15A1F48A2D992D95
:100430009C01F90104C0D7018D917D0181938E2D1E
:100440008C198B15C0F380E006C005C081E003C0A5
:1004500085E001C086E061960FB6F894DEBF0FBE5E
:10046000CDBFCF91DF911F910F91FF90EF90DF9063
:10047000CF90BF90AF909F9008951092980081E127
:100480008093990088E180939A0086E080939D0094
:100490008B9A8A9880EE87BB80E288BB08951F9371
:1004A000182F8A3019F48DE00E944F025D9BFECF19
:1004B0001CB980E090E01F9108951F93BC015F9BE1
:1004C000FECF1CB1812F0E944F02812F90E01F911F
:1004D00008951092900081E189B98AB188618AB942
:1004E000E5E9F0E080818660808387B3806E87BB1A
:1004F0008BE191E0909351028093500290934F02D0
:1005000080934E0280E008958F929F92AF92BF92A7
:10051000CF92DF92FF920F931F93DF93CF9300D080
:10052000CDB7DEB72CE3C22E22E0D22EFF24F39407
:10053000812C9CE6992E5E010894A11CB11CC4017B
:100540000197F1F780E060E04F2D22E085010E94E5
:10055000A7018130A1F389819A81F601819391935A
:100560006F01F394FAE0FF1619F01A821982E7CFAF
:100570000F900F90CF91DF911F910F91FF90DF901F
:10058000CF90BF90AF909F908F9008950F931F933F
:10059000CF93DF930E9469020E943D0278940E94EB
:1005A000840280E091E00E94281128EE33E008E107
:1005B00011E0C4E1D1E005C0CE010197F1F721506F
:1005C000304021153105C1F70E9484028BE091E093
:1005D0000E94281100D0EDB7FEB7128301830E945C
:1005E0005D110F900F90409142025091430282E0C2
:1005F00065E00E946303409144025091450282E00D
:1006000065E00E946303409146025091470282E0F8
:1006100065E00E946303409148025091490282E0E4
:1006200065E00E94630340914A0250914B0282E0D0
:1006300065E00E94630340914C0250914D0282E0BC
:1006400065E00E94630328EE33E0B6CF5D9BFECFEA
:100650008CB908955F9BFECF8CB10895883C91F4CE
:100660006F3F81F4442371F4822F90E0A0E0B0E06A
:100670008093290190932A01A0932B01B0932C0120
:1006800080E0089581E008959C01C2978F5F9447B0
:1006900010F081E0089589E993E0AC01249FC00146
:1006A000259F900D349F900D1124AA2797FDA095AA
:1006B000BA2F8093290190932A01A0932B01B09324
:1006C0002C0180E00895782F5D9BFECF8AEA8CB9DB
:1006D0005D9BFECF8AEA8CB95D9BFECF8AEA8CB91E
:1006E0005D9BFECF6CB95D9BFECF7CB9FA01272FD5
:1006F00090E007C080815D9BFECF8CB9280F9F5F83
:1007000031969717B8F35D9BFECF2CB980E0089522
:10071000582F5F9BFECF8CB18B3A49F55F9BFECF84
:100720008CB18B3A21F55F9BFECF8CB18B3AF9F4FB
:100730005F9BFECF8CB15F9BFECF4CB1FB01242FA2
:1007400090E006C05F9BFECF8CB18193280F9F5F26
:100750009517C0F35F9BFECF8CB1451711F083E076
:100760000895821711F480E0089584E0089582E0EE
:1007700008950F931F93782F142F052F6F3F11F4B7
:1007800081E04AC05F9BFECF8CB18B3A09F043C039
:100790005F9BFECF8CB18B3AF1F55F9BFECF8CB1A6
:1007A0008B3AC9F55F9BFECF4CB15F9BFECF5CB12E
:1007B000A72FB92FFD0101900020E9F73197E71B22
:1007C000272F392FC901DC01752F90E006C05F9BF0
:1007D000FECF8CB18D93780F9F5F9E17C0F3812F52
:1007E000902F9C01F90190E006C05F9BFECF8CB179
:1007F0008193780F9F5F9617C0F35F9BFECF8CB1FC
:10080000451B461711F083E007C0871711F480E0FD
:1008100003C084E001C082E01F910F9108959C0104
:100820005D9BFECF8BEB8CB95D9BFECF8BEB8CB9C8
:100830005D9BFECF8BEB8CB9F90101900020E9F7AD
:100840003197E21B8E2F90E00196860F911D8F3F0E
:10085000910519F014F081E00895EF5F8E2F860F57
:10086000E1505D9BFECF8CB95D9BFECFECB9782F3C
:100870007E0FD90190E007C08C915D9BFECF8CB9B3
:10088000780F9F5F11969E17B8F3FA0190E007C0AA
:1008900080815D9BFECF8CB9780F9F5F3196961754
:1008A000B8F35D9BFECF7CB980E00895A0E2B0E094
:1008B000ECE5F4E00C947A0F69837A838B839C8354
:1008C0002D833E834F835887CE010196BE01675F1B
:1008D0007F4F0E94ED06CE010596BE016F5E7F4FF1
:1008E0000E94ED069985923088F089898230C8F09F
:1008F000943019F4823051F404C0843029F49230D9
:1009000081F48EE291E0C6C0923049F420E09A85ED
:100910008A89981321E02A87CE010996BBC08230CC
:1009200049F420E09A858A89981321E02A8BCE0128
:100930004196B0C02D843E844F8458886D887E884F
:100940008F88988CEE24FF248701AA24BB2465019C
:1009500040E050E060E070E0E0E0F0E0C101817074
:100960009070892BE9F0E60CF71C081D191D9A01FF
:10097000AB012A0D3B1D4C1D5D1D80E090E0A0E009
:10098000B0E0E614F7040805190520F481E090E0D2
:10099000A0E0B0E0BA01A901480F591F6A1F7B1FF0
:1009A000AA0CBB1CCC1CDD1C97FE08C081E090E0AB
:1009B000A0E0B0E0A82AB92ACA2ADB2A3196E032A0
:1009C000F10549F0660C771C881C991C56944794D5
:1009D00037942794C3CFFA85EA892B893C898B8584
:1009E0009C85280F391F2E5F3F4F17C0CA018170A9
:1009F0009070892B61F016950795F794E79480E045
:100A000090E0A0E0B0E8E82AF92A0A2B1B2B7695A3
:100A10006795579547952F5F3F4F77FDE7CF0CC000
:100A2000440F551F661F771F17FD4160EE0CFF1C1A
:100A3000001F111F21503040403090E0590790E0D6
:100A4000690790E4790760F32B8F3C8FDB01CA01C3
:100A50008F779070A070B07080349105A105B105BA
:100A600061F447FD0AC0E114F1040105110529F004
:100A7000405C5F4F6F4F7F4F40781A8EFE1711F02A
:100A800081E08A8F4D8F5E8F6F8F78A383E0898F8F
:100A9000CE0149960E941806A096E2E10C94960FAA
:100AA000A8E0B0E0E6E5F5E00C94820F7B018C0154
:100AB000611571058105910519F482E0898360C093
:100AC00083E089838EE1C82ED12CDC82CB82ED823B
:100AD000FE820F831887C801B7010E94C905FC0177
:100AE0003197F7FF3BC0222733272E1B3F0B5701BF
:100AF0006801022E04C0D694C794B794A7940A94B0
:100B0000D2F740E050E060E070E081E090E0A0E0EB
:100B1000B0E004C0880F991FAA1FBB1F2A95D2F707
:100B20000197A109B1098E219F21A023B12300972C
:100B3000A105B10521F041E050E060E070E04A29F4
:100B40005B296C297D294D835E836F8378878EE1D5
:100B500090E08E1B9F0B9C838B8312C0309781F09B
:100B60000E2E04C0EE0CFF1C001F111F0A94D2F7BA
:100B7000ED82FE820F831887CE1ADF0ADC82CB82D9
:100B80001A82CE0101960E9418062896EAE00C947B
:100B90009E0FEF92FF920F931F937B018C0180E0D9
:100BA000E81680E0F80681E0080780E0180788F47E
:100BB0008FEFE816F1040105110531F028F088E007
:100BC00090E0A0E0B0E017C080E090E0A0E0B0E0EE
:100BD00012C080E0E81680E0F80680E0080781E0B7
:100BE000180728F088E190E0A0E0B0E004C080E1C0
:100BF00090E0A0E0B0E020E230E040E050E0281BD0
:100C0000390B4A0B5B0B04C016950795F794E794D4
:100C10008A95D2F7F701EA5CFE4F8081281B3109E3
:100C200041095109C9011F910F91FF90EF9008955B
:100C3000DF92EF92FF920F931F93FC01E480F58007
:100C400006811781D1808081823048F480E090E075
:100C5000A0E1B0E0E82AF92A0A2B1B2BA5C08430BA
:100C600009F49FC0823021F4EE24FF24870105C0DF
:100C7000E114F1040105110519F4E0E0F0E096C07B
:100C8000628173819FEF623879070CF05BC022E8C4
:100C90003FEF261B370B2A3131052CF020E030E0E6
:100CA00040E050E02AC0B801A701022E04C07695AA
:100CB0006795579547950A94D2F781E090E0A0E0B8
:100CC000B0E004C0880F991FAA1FBB1F2A95D2F756
:100CD0000197A109B1098E219F21A023B12300977B
:100CE000A105B10521F081E090E0A0E0B0E09A011B
:100CF000AB01282B392B4A2B5B2BDA01C9018F77EB
:100D00009070A070B07080349105A105B10539F4E0
:100D100027FF09C0205C3F4F4F4F5F4F04C0215C4D
:100D20003F4F4F4F5F4FE0E0F0E02030A0E03A0748
:100D3000A0E04A07A0E45A0710F0E1E0F0E07901F2
:100D40008A0127C06038710564F5FB01E158FF4F47
:100D5000D801C7018F779070A070B0708034910572
:100D6000A105B10539F4E7FE0DC080E490E0A0E0F4
:100D7000B0E004C08FE390E0A0E0B0E0E80EF91E20
:100D80000A1F1B1F17FF05C016950795F794E794D8
:100D9000319687E016950795F794E7948A95D1F7F1
:100DA00005C0EE24FF248701EFEFF0E06E2F67957A
:100DB00066276795902F9F77D794DD24D7948E2F41
:100DC0008695492F462B582F5D29B701CA011F91DF
:100DD0000F91FF90EF90DF900895FC01DB014081BF
:100DE00051812281622F6F7770E0221F2227221FFC
:100DF0009381892F880F822B282F30E0991F992704
:100E0000991F11969C93119721153105A9F541154C
:100E100051056105710511F482E037C082E89FEF4A
:100E200013969C938E9312979A01AB0167E0220F61
:100E3000331F441F551F6A95D1F783E08C930DC073
:100E4000220F331F441F551F12968D919C911397AB
:100E5000019713969C938E931297203080E0380769
:100E600080E0480780E4580758F314962D933D938B
:100E70004D935C93179708952F3F310579F44115F1
:100E800051056105710519F484E08C93089564FFA0
:100E900003C081E08C9312C01C9210C02F573040C9
:100EA00013963C932E93129783E08C9387E0440F24
:100EB000551F661F771F8A95D1F7706414964D935E
:100EC0005D936D937C93179708952F923F924F9265
:100ED0005F926F927F928F929F92AF92BF92CF92CA
:100EE000DF92EF92FF920F931F93DF93CF93CDB7D3
:100EF000DEB761970FB6F894DEBF0FBECDBF3C01E1
:100F00007F876E876A01FC0117821682838181FDCB
:100F100003C06FEF7FEF6FC39E012F5F3F4F398B91
:100F2000288BF3012381EE85FF8523FD859123FF27
:100F30008191FF87EE87882309F45AC3853251F4E3
:100F4000EE85FF8523FD859123FF8191FF87EE8745
:100F5000853229F490E0B3010E94FC10E2CF982F73
:100F600010E0882499241032B0F49B3269F09C324E
:100F700028F4903251F0933271F40BC09D3239F065
:100F8000903349F4116028C01260146025C01860C5
:100F900023C0106121C017FD2AC0892F80538A30D9
:100FA00078F416FF06C0FAE09F9E902C1124980E4C
:100FB00013C03AE0839E802C1124880E10620CC06E
:100FC0009E3221F416FD14C3106406C09C3611F441
:100FD000106802C0983659F4EE85FF8523FD95917F
:100FE00023FF9191FF87EE87992309F0BCCF892FCA
:100FF0008554833020F4812F8061905E07C0892F53
:101000008556833008F09FC1812F8F7E86FD02C0F8
:1010100076E0972E6FE3F62EF822953619F4F0E479
:10102000FF2A07C0963619F420E8F22A02C0911070
:101030009A94F7FE0AC03BE3391518F45CE3B52E29
:1010400002C0B92CB39427E009C047E0491520F449
:10105000BB2447E0942EF7CF292DBB24C60104966C
:101060009D878C87F6016081718182819381AE01B9
:101070004F5F5F4F0B2D0E94B10F6C010981202E35
:10108000332400FF04C003FD02C01DE209C0F1FECD
:1010900002C01BE205C0F2FC02C010E001C010E279
:1010A000C1018C709070892BB9F1112311F483E088
:1010B00001C084E0881510F088240AC0881AF3FC67
:1010C00007C080E290E0B3010E94FC108A94C9F747
:1010D000112329F0812F90E0B3010E94FC1023FE20
:1010E00003C00CE810E00EC000E910E00BC0E114F2
:1010F000F10409F0805290E0B3010E94FC100F5FF0
:101100001F4F05C0EF2CFF24F0E1EF22FF24F80170
:101110008491882361F714C1F7FE12C0BC0C24FE31
:1011200004C08A81813309F4BA941B141CF0BB24D7
:10113000B3942DC0F8E0FB1550F538E0B32E27C06E
:10114000F6FC25C0892D90E08C159D054CF02CEF08
:10115000C2162FEFD20624F030E8F32A01C09A9489
:10116000992049F0E2E0F0E0EC0FFD1FE90DF11DE0
:1011700080818033A1F3F7FE0AC0B92CB394892D86
:1011800090E0C816D90614F0992401C09C18F7FC09
:1011900003C025E030E009C01C141D041CF021E050
:1011A00030E003C096012F5F3F4F112311F02F5FF6
:1011B0003F4F992029F0892D90E00196280F391F83
:1011C000882D90E02817390714F0882401C0821A6E
:1011D0004F2C5524C20189709070892B39F008C0BA
:1011E00080E290E0B3010E94FC108A948820C1F74D
:1011F000112329F0812F90E0B3010E94FC1043FEDF
:1012000007C008C080E390E0B3010E94FC108A94FC
:101210008820C1F7F7FE46C08601D7FE02C000E075
:1012200010E076010894E11CF11CE01AF10A41E09B
:1012300050E04C0F5D1FE40EF51E26014B185108BF
:10124000892D90E0AA24BB24A81AB90A5FEF0F3FAA
:10125000150729F48EE290E0B3010E94FC10C0163D
:10126000D10634F0401651061CF4F701808101C00C
:1012700080E3015010400894E11CF11C0A151B0585
:101280002CF090E0B3010E94FC10E0CF0C151D057E
:1012900039F49A81963318F4953311F424FE81E3DE
:1012A00090E04BC08A81813309F00F7E90E0B3015A
:1012B0000E94FC109920A1F08EE290E0B3010E9400
:1012C000FC1012E0E1E0F0E0EC0FFD1FE10FF11D7A
:1012D0001F5F808190E0B3010E94FC109A9491F707
:1012E00044FC03C085E690E002C085E490E0B301D1
:1012F0000E94FC10D7FC05C0C114D10441F404FFC6
:1013000006C0D094C194D108D3948DE201C08BE281
:1013100090E0B3010E94FC1080E305C08F5F26EFD0
:101320003FEFC20ED31E3AE0C316D104BCF790E0E3
:10133000B3010E94FC10C601C096B3010E94FC10CC
:10134000CC84DD8452C1933631F0933799F09335D4
:1013500009F059C023C0F601808189835E01089499
:10136000A11CB11C22E030E0C20ED31E21E0E22E0F
:10137000F12C12C0F601A080B18016FD03C06FEF02
:101380007FEF02C0692D70E022E030E0C20ED31E74
:10139000C5010E94AF107C011F7713C0F601A08029
:1013A000B18016FD03C06FEF7FEF02C0692D70E0C2
:1013B00022E030E0C20ED31EC5010E94A4107C01C1
:1013C000106813FF07C01BC080E290E0B3010E94C9
:1013D000FC108A94882D90E0E816F906A8F30FC057
:1013E000F50117FD859117FF81915F0190E0B30131
:1013F0000E94FC1081108A940894E108F108E1141D
:10140000F10471F7F2C0943611F0993689F517FF9F
:1014100008C0F601208131814281538184E090E04F
:101420000AC0F601808191819C01442737FD4095D7
:10143000542F82E090E0C80ED91E9FE6F92EF122CB
:1014400057FF09C050954095309521953F4F4F4F1C
:101450005F4F90E8F92ACA01B901AE014F5F5F4FB3
:101460002AE030E00E948911E82EE889EE1A41C096
:10147000953721F41F7E2AE030E01CC0197F9F368B
:1014800061F0903720F4983509F0B2C00FC0903762
:1014900039F0983709F0ACC004C028E030E00AC049
:1014A000106114FD146020E130E004C014FD1660EA
:1014B00020E132E017FF08C0F6016081718182816E
:1014C000938144E050E008C0F60180819181BC0125
:1014D00080E090E042E050E0C40ED51EAE014F5FC8
:1014E0005F4F0E948911E82E5889E51A8FE7F82E80
:1014F000F122F6FE0BC08EEFF822E91438F4F4FE68
:1015000007C0F2FC05C09FEEF92202C01E2D01C0EB
:10151000192DF4FE0DC0FE01EE0DF11D808180330A
:1015200019F4E9EEFE2208C01F5FF2FE05C003C0F9
:101530008F2D867809F01F5F0F2DF3FC14C0F0FE8D
:101540000FC0181510F09E2C0BC09E2C980C911AF1
:10155000182D06C080E290E0B3010E94FC101F5FCE
:101560001815C0F304C0181510F4811A01C088249E
:1015700004FF0FC080E390E0B3010E94FC1002FF63
:101580001DC001FD03C088E790E00EC088E590E033
:101590000BC0802F867891F001FF02C08BE201C062
:1015A00080E2F7FC8DE290E0B3010E94FC1006C0DF
:1015B00080E390E0B3010E94FC109A94E914C0F318
:1015C000EA94E1E0F0E0EC0FFD1FEE0DF11D8081EB
:1015D00090E0B3010E94FC10EE2091F706C080E27B
:1015E00090E0B3010E94FC108A948820C1F799CC46
:1015F000F30166817781CB0161960FB6F894DEBF67
:101600000FBECDBFCF91DF911F910F91FF90EF9053
:10161000DF90CF90BF90AF909F908F907F906F9012
:101620005F904F903F902F900895FC0120FD08C0DF
:1016300023FD05C022FF02C0738362835183408370
:101640000895EF92FF920F931F9344FF02C033E07F
:1016500011C046FF02C034E00DC0DB01FC01AA0F3F
:10166000BB1FEE1FFF1F1094D1F76A0F7B1F8E1F49
:101670009F1F31E0660F771F881F991F3150D1F7E8
:101680007B018C01E20EF11C011D111DA8019701C7
:10169000B701CA011F910F91FF90EF9008950F932A
:1016A0001F93CF93DF938C01C8010E94BA10EC0105
:1016B00097FD08C00E948910892BB1F7CE01B801AF
:1016C0000E946F11CE01DF91CF911F910F9108956C
:1016D0008F929F92AF92BF92DF92EF92FF920F9301
:1016E0001F93CF93DF935C01EB014A01122F0E94FD
:1016F000BA10AC018B3219F08D3251F41068219779
:1017000009F46DC0C5010E94BA10AC0197FD67C015
:101710006DEFD62ED1228D2D807301F54033F1F47B
:10172000219709F447C0C5010E94BA10AC0197FD8A
:1017300041C082E0D82A483711F0483559F480E496
:10174000D82A2197B9F1C5010E94BA10AC0199239A
:101750002CF430C0D6FC02C080E1D82AEE24FF244D
:101760008701242F2053283088F0D4FC09C02A3068
:1017700068F0D6FE05C02F7D822F8151863028F07B
:10178000CA01B5010E946F1112C02750C801B701EC
:101790004D2D0E94210B7B018C0182E0D82A2197DC
:1017A00061F0C5010E94BA10AC0197FFDACFD1FCFD
:1017B00004C015C0EE24FF248701D7FE08C0109591
:1017C0000095F094E094E11CF11C011D111DC40171
:1017D000B801A7012D2D0E94150B81E001C080E00A
:1017E000DF91CF911F910F91FF90EF90DF90BF900D
:1017F000AF909F908F9008956F927F928F929F925B
:10180000AF92BF92CF92DF92EF92FF920F931F930E
:10181000DF93CF93CDB7DEB7A0970FB6F894DEBFB6
:101820000FBECDBF5C016B018A017901FE013196CB
:1018300080E2DF011D928A95E9F770E030E060E018
:1018400040E050E03F01A1E0B0E0F5018381F70105
:1018500083FD259183FF21917F01222309F481C01B
:101860002E3519F44115510569F1872F90E0841741
:10187000950744F42D3551F12D3221F4332329F409
:1018800031E021C0332309F4622F322F832F869554
:1018900086958695F301E80FF11D832F87704D0122
:1018A00002C0880C991C8A95E2F7208128292083A0
:1018B000361711F430E007C0361710F43F5FE6CF5B
:1018C0003150E4CF71E04F5F5F4FBFCF332319F04A
:1018D0008E8180628E83772359F0FE0131969E01BE
:1018E0002F5D3F4F808180958193E217F307D1F7F9
:1018F000992493943E010894611C711CC5010E94B7
:10190000BA10AC0197FD25C0869586958695F301A2
:10191000E80FF11D808190E09A012770307002C0BD
:10192000959587952A95E2F780FD05C0CA01B50116
:101930000E946F110EC00115110519F0D8014D93C9
:101940008D010894C108D1089924C114D104B1F6BD
:1019500002C0992031F40115110529F0F801108217
:1019600002C0EE24FF24C701A0960FB6F894DEBF94
:101970000FBECDBFCF91DF911F910F91FF90EF90E0
:10198000DF90CF90BF90AF909F908F907F906F909F
:1019900008952F923F925F926F927F928F929F92C3
:1019A000AF92BF92CF92DF92EF92FF920F931F936D
:1019B000CF93DF933C017B011A010E94BA10EC0126
:1019C0008B3239F08D3211F0552411C0B0E85B2E06
:1019D00001C055240894E108F108E114F10409F468
:1019E00018C1C3010E94BA10EC0197FD12C1CE01CB
:1019F0000E9491108936910521F08E36910599F556
:101A00001DC009EA10E01CC00894E108F108E114C7
:101A1000F10471F0C3010E94BA10EC0197FD08C0F7
:101A20000E949110D81661F0CE01B3010E946F118F
:101A300020E00C3A120709F0ECC008C006EA10E0FA
:101A4000F8010F5F1F4FD490DD20F1F6095A1040C6
:101A500029F080E090E0A0E8BFE7CFC080E090E010
:101A6000A0ECBFE7CAC0CC24DD248824992454010B
:101A7000AE014053242F4A3038F552E0552A852DC7
:101A800090E0AC014870507052FE06C0452B11F535
:101A90000894C11CD11C1EC0452B19F00894C10824
:101AA000D108C501B40140E20E94210B4B015C0149
:101AB00088E9881689E9980689E9A80689E1B806BF
:101AC00048F094E0592A06C04E3F81F453FC0EC002
:101AD000E8E05E2A0894E108F108E114F10431F02D
:101AE000C3010E94BA10EC0197FFC2CF51FE91C012
:101AF000C53619F0C53409F046C00894E108F1086C
:101B0000E114F10409F485C0C3010E94BA10EC018C
:101B100097FD7FC08B3221F08D3269F4F0E15F2AAE
:101B20000894E108F108E114F10409F472C0C3015A
:101B30000E94BA10EC01CE01C0970A9708F069C064
:101B400000E010E0B801882777FD8095982FAE015E
:101B50004053242F40E20E94210B8B010894E1089E
:101B6000F108E114F10439F0C3010E94BA10EC014C
:101B7000C0970A9738F3B80154FE03C07095619579
:101B80007F4FC60ED71EEF2831F0D7FD04C0CE011F
:101B9000B3010E946F11C501B4010E945005D7FE28
:101BA0000DC0A5ECEA2EA0E0FA2ED094C194D10885
:101BB000D394C0E2D0E000E010E00EC0FDEDEF2EC7
:101BC000F0E0FF2EF6CFF701259135914591549124
:101BD0000E945604CC1ADD0ACC16DD06A0F7D69575
:101BE000C7950F5F1F4F0630110529F0ECEFFFEF8F
:101BF000EE0EFF1EF1CFDC01CB0157FCB0582114D3
:101C0000310429F0F10180839183A283B38381E0C1
:101C100001C080E0DF91CF911F910F91FF90EF9075
:101C2000DF90CF90BF90AF909F908F907F906F90FC
:101C30005F903F902F9008955F926F927F928F9266
:101C40009F92AF92BF92CF92DF92EF92FF920F934B
:101C50001F93CF93DF934C015B013A01FC01178284
:101C60001682552404C1812F90E00E948910892B8F
:101C700021F0C4010E944F0BFAC0153249F4F5015E
:101C8000F3FC6591F3FE61915F01653269F415E241
:101C9000C4010E94BA1097FDF6C0181709F4E7C0F6
:101CA000B4010E946F11F4C06A3219F0162F00E0DF
:101CB00006C0F3FC1591F3FE11915F0101E0CC2405
:101CC000DD240EC00260B60180E090E040E20E9498
:101CD000210B6B01F501F3FC1591F3FE11915F01EE
:101CE000212F20532A3070F301FD04C0CC24CA9464
:101CF000DC2C04C0C114D10409F4CAC0183621F088
:101D00001C3699F4F5010BC0F501F3FC6591F3FE67
:101D10006191683619F05F01162F07C008600460F2
:101D2000F3FC1591F3FE11915F01112309F4B0C08A
:101D300084E990E0612F70E00E949910892B09F4EA
:101D4000A7C0802F00FF03C0EE24FF2407C0F301CB
:101D5000E080F18022E030E0620E731E1E3651F406
:101D6000F4014681578160E070E0C701202F0E9496
:101D7000150B7DC01336B9F481FD03C011E0C12EEF
:101D8000D12CC4010E94BA1097FD7DC0E114F1046A
:101D900019F0F70181937F010894C108D108C1149B
:101DA000D10479F762C01B3559F4C401B601A7010B
:101DB00095010E94FC0B5C01009709F056C050C0D1
:101DC000C4010E944F0B97FD5EC01F36D1F1103742
:101DD00038F41436A1F11936A9F11835D1F52DC012
:101DE000133751F0143718F4103799F526C015370A
:101DF00031F1183771F521C0C4010E94BA10EC010D
:101E000097FD15C00E948910892B29F0CE01B401DD
:101E10000E946F110CC0E114F10419F0F701C19395
:101E20007F010894C108D108C114D10429F7E11435
:101E3000F104D9F0F701108218C0006403C00062F9
:101E400001C00061C401B601A701202F0E94680BE8
:101E500005C0C401B601A7010E94C90C882329F45A
:101E6000F4018381807379F413C000FF5394F4016B
:101E7000F380F501F3FC1591F3FE11915F0111233D
:101E800009F0F1CE05C0552019F42FEF3FEF02C045
:101E9000252D30E0C901DF91CF911F910F91FF9067
:101EA000EF90DF90CF90BF90AF909F908F907F90FA
:101EB0006F905F900895629FD001739FF001829FA1
:101EC000E00DF11D649FE00DF11D929FF00D839FC9
:101ED000F00D749FF00D659FF00D9927729FB00D66
:101EE000E11DF91F639FB00DE11DF91FBD01CF0179
:101EF000112408952F923F924F925F926F927F929A
:101F00008F929F92AF92BF92CF92DF92EF92FF9209
:101F10000F931F93CF93DF93CDB7DEB7CA1BDB0BB5
:101F20000FB6F894DEBF0FBECDBF09942A8839885A
:101F300048885F846E847D848C849B84AA84B98461
:101F4000C884DF80EE80FD800C811B81AA81B9816D
:101F5000CE0FD11D0FB6F894DEBF0FBECDBFED0181
:101F60000895283008F027E03327DA01990F311D52
:101F700087FD916000966105710539F432602E5F2E
:101F80003D9330E32A95E1F708959F3F30F0803884
:101F90007105610509F03C5F3C5F3D93913008F0AD
:101FA0008068911DDF93CF931F930F93FF92EF9261
:101FB000192F987F9695E92F96959695E90FFF270B
:101FC000E55CFE4F99273327EE24FF24A701E701A4
:101FD00005900894079428F4360FE71EF81E491F51
:101FE000511D660F771F881F991F0694A1F7059052
:101FF000079428F4E70EF81E491F561FC11D770FDE
:10200000881F991F661F0694A1F70590079428F46E
:10201000F80E491F561FC71FD11D880F991F661F35
:10202000771F0694A1F70590079420F4490F561FD7
:10203000C71FD81F990F661F771F881F0694A9F71F
:1020400084911095177041F0D695C795579547958F
:10205000F794E7941A95C1F7E1EEF0E068941590D3
:10206000159135916591959105907FE27395E118F1
:10207000F10A430B560BC90BD009C0F7E10CF11E56
:10208000431F561FC91FD01D7EF4703311F48A956B
:10209000E6CFE894015030F0080F0AF40027021749
:1020A00008F4202F2395022F7A3328F079E37D93CB
:1020B0002A95E9F710C07D932A9589F6069497959D
:1020C0006795379517951794E118F10A430B560B4E
:1020D000C90BD00998F023957E9173957A3308F057
:1020E00070E37C932013B8F77E9170617D9330F09C
:1020F000839571E37D9370E32A95E1F71124EF90C6
:10210000FF900F911F91CF91DF91992787FD9095B7
:10211000089591115CC1803219F089508550D0F733
:1021200008959111089581548A5108F4805E855A6A
:102130000895FC010590061621F00020D9F7C00192
:1021400008953197CF010895FC01059061507040CA
:102150000110D8F7809590958E0F9F1F0895FC0170
:102160006150704001900110D8F7809590958E0FC6
:102170009F1F0895CF93DF93EC014B8140FF1AC05E
:1021800046FF0AC04F7B4B838E819F8101969F83C0
:102190008E838A81282F2BC042FF13C0E881F981EA
:1021A0008081282F332727FD30952115310529F40B
:1021B00040624B832FEF3FEF1BC03196F983E883DA
:1021C00011C0EA85FB85CE0109959C0197FF0AC0E5
:1021D0009B812F5F3F4F11F080E201C080E1892B8E
:1021E0008B83E8CF8E819F8101969F838E8330E021
:1021F000C901DF91CF9108950F931F93CF93DF9380
:102200008C01EB018B8181FF1BC082FF0DC02E81F1
:102210003F818C819D812817390764F4E881F98119
:102220000193F983E88306C0E885F985802F099535
:10223000892B31F48E819F8101969F838E8302C00A
:102240000FEF1FEFC801DF91CF911F910F910895FC
:102250000F931F93CF93DF938C01E0915002F09185
:102260005102838181FF21C0C0E0D0E00DC0E09128
:102270005002F091510220853185BF01F901099585
:10228000892B11F0CFEFDFEFF80181918F018823C7
:1022900071F7E0915002F0915102208531858AE07A
:1022A000BF01F9010995892B11F0CFEFDFEFCE01C6
:1022B000DF91CF911F910F910895DF93CF93CDB709
:1022C000DEB7FE0135966191719180914E02909139
:1022D0004F02AF010E941C0ECF91DF9108959C0127
:1022E000FB01838180FF11C086FD0FC09FEF2F3F50
:1022F000390759F0228380648F7D8383868197819B
:1023000001979783868330E002C02FEF3FEFC9012A
:102310000895FA01AA27283051F1203181F1E8947B
:102320006F936E7F6E5F7F4F8F4F9F4FAF4FB1E0C8
:102330003ED0B4E03CD0670F781F891F9A1FA11DC3
:10234000680F791F8A1F911DA11D6A0F711D811DC4
:10235000911DA11D20D009F468943F912AE0269F89
:1023600011243019305D3193DEF6CF010895462FE8
:102370004770405D4193B3E00FD0C9F7F6CF462FC9
:102380004F70405D4A3318F0495D31FD4052419332
:1023900002D0A9F7EACFB4E0A695979587957795EF
:1023A0006795BA95C9F700976105710508959B0176
:1023B000AC010A2E06945795479537952795BA95FF
:1023C000C9F7620F731F841F951FA01D08959927D9
:0823D00088270895F894FFCF5F
:1023D8006D7264617461206765740073656E642052
:1023E8006D722064617461002573000000000300B1
:1023F8000000004F025D020000A80D0E0001000061
:1024080000000000000000010202030303030404AB
:10241800040404040404050505050505050505056A
:10242800050505050505060606060606060606064A
:102438000606060606060606060606060606060634
:10244800060606060606070707070707070707071A
:102458000707070707070707070707070707070704
:1024680007070707070707070707070707070707F4
:1024780007070707070707070707070707070707E4
:1024880007070707070708080808080808080808CA
:1024980008080808080808080808080808080808B4
:1024A80008080808080808080808080808080808A4
:1024B8000808080808080808080808080808080894
:1024C8000808080808080808080808080808080884
:1024D8000808080808080808080808080808080874
:1024E8000808080808080808080808080808080864
:1024F8000808080808080808080808080808080854
:062508000808080808089D
:00000001FF
